{
  "_format": "hh-sol-artifact-1",
  "contractName": "MyEpicNFT",
  "sourceName": "contracts/MyEpicNFT.sol",
  "abi": [
    {
      "inputs": [],
      "stateMutability": "nonpayable",
      "type": "constructor"
    },
    {
      "anonymous": false,
      "inputs": [
        {
          "indexed": true,
          "internalType": "address",
          "name": "owner",
          "type": "address"
        },
        {
          "indexed": true,
          "internalType": "address",
          "name": "approved",
          "type": "address"
        },
        {
          "indexed": true,
          "internalType": "uint256",
          "name": "tokenId",
          "type": "uint256"
        }
      ],
      "name": "Approval",
      "type": "event"
    },
    {
      "anonymous": false,
      "inputs": [
        {
          "indexed": true,
          "internalType": "address",
          "name": "owner",
          "type": "address"
        },
        {
          "indexed": true,
          "internalType": "address",
          "name": "operator",
          "type": "address"
        },
        {
          "indexed": false,
          "internalType": "bool",
          "name": "approved",
          "type": "bool"
        }
      ],
      "name": "ApprovalForAll",
      "type": "event"
    },
    {
      "anonymous": false,
      "inputs": [
        {
          "indexed": false,
          "internalType": "address",
          "name": "sender",
          "type": "address"
        },
        {
          "indexed": false,
          "internalType": "uint256",
          "name": "tokenId",
          "type": "uint256"
        }
      ],
      "name": "NewNFTMinted",
      "type": "event"
    },
    {
      "anonymous": false,
      "inputs": [
        {
          "indexed": true,
          "internalType": "address",
          "name": "from",
          "type": "address"
        },
        {
          "indexed": true,
          "internalType": "address",
          "name": "to",
          "type": "address"
        },
        {
          "indexed": true,
          "internalType": "uint256",
          "name": "tokenId",
          "type": "uint256"
        }
      ],
      "name": "Transfer",
      "type": "event"
    },
    {
      "inputs": [
        {
          "internalType": "address",
          "name": "to",
          "type": "address"
        },
        {
          "internalType": "uint256",
          "name": "tokenId",
          "type": "uint256"
        }
      ],
      "name": "approve",
      "outputs": [],
      "stateMutability": "nonpayable",
      "type": "function"
    },
    {
      "inputs": [
        {
          "internalType": "address",
          "name": "owner",
          "type": "address"
        }
      ],
      "name": "balanceOf",
      "outputs": [
        {
          "internalType": "uint256",
          "name": "",
          "type": "uint256"
        }
      ],
      "stateMutability": "view",
      "type": "function"
    },
    {
      "inputs": [
        {
          "internalType": "uint256",
          "name": "tokenId",
          "type": "uint256"
        }
      ],
      "name": "getApproved",
      "outputs": [
        {
          "internalType": "address",
          "name": "",
          "type": "address"
        }
      ],
      "stateMutability": "view",
      "type": "function"
    },
    {
      "inputs": [],
      "name": "howManyMinted",
      "outputs": [
        {
          "internalType": "uint256",
          "name": "",
          "type": "uint256"
        }
      ],
      "stateMutability": "view",
      "type": "function"
    },
    {
      "inputs": [
        {
          "internalType": "address",
          "name": "owner",
          "type": "address"
        },
        {
          "internalType": "address",
          "name": "operator",
          "type": "address"
        }
      ],
      "name": "isApprovedForAll",
      "outputs": [
        {
          "internalType": "bool",
          "name": "",
          "type": "bool"
        }
      ],
      "stateMutability": "view",
      "type": "function"
    },
    {
      "inputs": [],
      "name": "makeAnEpicNFT",
      "outputs": [],
      "stateMutability": "nonpayable",
      "type": "function"
    },
    {
      "inputs": [],
      "name": "name",
      "outputs": [
        {
          "internalType": "string",
          "name": "",
          "type": "string"
        }
      ],
      "stateMutability": "view",
      "type": "function"
    },
    {
      "inputs": [
        {
          "internalType": "uint256",
          "name": "tokenId",
          "type": "uint256"
        }
      ],
      "name": "ownerOf",
      "outputs": [
        {
          "internalType": "address",
          "name": "",
          "type": "address"
        }
      ],
      "stateMutability": "view",
      "type": "function"
    },
    {
      "inputs": [
        {
          "internalType": "uint256",
          "name": "tokenId",
          "type": "uint256"
        }
      ],
      "name": "pickRandomColor",
      "outputs": [
        {
          "internalType": "string",
          "name": "",
          "type": "string"
        }
      ],
      "stateMutability": "view",
      "type": "function"
    },
    {
      "inputs": [
        {
          "internalType": "uint256",
          "name": "tokenId",
          "type": "uint256"
        }
      ],
      "name": "pickRandomFirstWord",
      "outputs": [
        {
          "internalType": "string",
          "name": "",
          "type": "string"
        }
      ],
      "stateMutability": "view",
      "type": "function"
    },
    {
      "inputs": [
        {
          "internalType": "uint256",
          "name": "tokenId",
          "type": "uint256"
        }
      ],
      "name": "pickRandomSecondWord",
      "outputs": [
        {
          "internalType": "string",
          "name": "",
          "type": "string"
        }
      ],
      "stateMutability": "view",
      "type": "function"
    },
    {
      "inputs": [
        {
          "internalType": "address",
          "name": "from",
          "type": "address"
        },
        {
          "internalType": "address",
          "name": "to",
          "type": "address"
        },
        {
          "internalType": "uint256",
          "name": "tokenId",
          "type": "uint256"
        }
      ],
      "name": "safeTransferFrom",
      "outputs": [],
      "stateMutability": "nonpayable",
      "type": "function"
    },
    {
      "inputs": [
        {
          "internalType": "address",
          "name": "from",
          "type": "address"
        },
        {
          "internalType": "address",
          "name": "to",
          "type": "address"
        },
        {
          "internalType": "uint256",
          "name": "tokenId",
          "type": "uint256"
        },
        {
          "internalType": "bytes",
          "name": "_data",
          "type": "bytes"
        }
      ],
      "name": "safeTransferFrom",
      "outputs": [],
      "stateMutability": "nonpayable",
      "type": "function"
    },
    {
      "inputs": [
        {
          "internalType": "address",
          "name": "operator",
          "type": "address"
        },
        {
          "internalType": "bool",
          "name": "approved",
          "type": "bool"
        }
      ],
      "name": "setApprovalForAll",
      "outputs": [],
      "stateMutability": "nonpayable",
      "type": "function"
    },
    {
      "inputs": [
        {
          "internalType": "bytes4",
          "name": "interfaceId",
          "type": "bytes4"
        }
      ],
      "name": "supportsInterface",
      "outputs": [
        {
          "internalType": "bool",
          "name": "",
          "type": "bool"
        }
      ],
      "stateMutability": "view",
      "type": "function"
    },
    {
      "inputs": [],
      "name": "symbol",
      "outputs": [
        {
          "internalType": "string",
          "name": "",
          "type": "string"
        }
      ],
      "stateMutability": "view",
      "type": "function"
    },
    {
      "inputs": [
        {
          "internalType": "uint256",
          "name": "tokenId",
          "type": "uint256"
        }
      ],
      "name": "tokenURI",
      "outputs": [
        {
          "internalType": "string",
          "name": "",
          "type": "string"
        }
      ],
      "stateMutability": "view",
      "type": "function"
    },
    {
      "inputs": [
        {
          "internalType": "address",
          "name": "from",
          "type": "address"
        },
        {
          "internalType": "address",
          "name": "to",
          "type": "address"
        },
        {
          "internalType": "uint256",
          "name": "tokenId",
          "type": "uint256"
        }
      ],
      "name": "transferFrom",
      "outputs": [],
      "stateMutability": "nonpayable",
      "type": "function"
    }
  ],
  "bytecode": "0x608060405260405180610100016040528060d38152602001620040a460d391396008908051906020019062000036929190620005a6565b5060405180608001604052806056815260200162004177605691396009908051906020019062000068929190620005a6565b506040518060a001604052806040518060400160405280600581526020017f677265617400000000000000000000000000000000000000000000000000000081525081526020016040518060400160405280600481526020017f626573740000000000000000000000000000000000000000000000000000000081525081526020016040518060400160405280600781526020017f666173746573740000000000000000000000000000000000000000000000000081525081526020016040518060400160405280600681526020017f626574746572000000000000000000000000000000000000000000000000000081525081526020016040518060400160405280600981526020017f66616e7461737469630000000000000000000000000000000000000000000000815250815250600a906005620001ab92919062000637565b506040518060a001604052806040518060400160405280600481526020017f63616b650000000000000000000000000000000000000000000000000000000081525081526020016040518060400160405280600681526020017f627572676572000000000000000000000000000000000000000000000000000081525081526020016040518060400160405280600581526020017f70697a7a6100000000000000000000000000000000000000000000000000000081525081526020016040518060400160405280600681526020017f636f66666565000000000000000000000000000000000000000000000000000081525081526020016040518060400160405280600381526020017f7465610000000000000000000000000000000000000000000000000000000000815250815250600b906005620002ee92919062000637565b5060405180608001604052806040518060400160405280600781526020017f234538363933300000000000000000000000000000000000000000000000000081525081526020016040518060400160405280600781526020017f233439453946460000000000000000000000000000000000000000000000000081525081526020016040518060400160405280600781526020017f233439453941310000000000000000000000000000000000000000000000000081525081526020016040518060400160405280600781526020017f2334393645413100000000000000000000000000000000000000000000000000815250815250600c906004620003f69291906200069e565b503480156200040457600080fd5b506040518060400160405280600981526020017f5371756172654e465400000000000000000000000000000000000000000000008152506040518060400160405280600681526020017f5351554152450000000000000000000000000000000000000000000000000000815250816000908051906020019062000489929190620005a6565b508060019080519060200190620004a2929190620005a6565b505050620004d46040518060600160405280602281526020016200408260229139620004da60201b6200128f1760201c565b620008bf565b6200057a81604051602401620004f19190620007d3565b6040516020818303038152906040527f41304fac000000000000000000000000000000000000000000000000000000007bffffffffffffffffffffffffffffffffffffffffffffffffffffffff19166020820180517bffffffffffffffffffffffffffffffffffffffffffffffffffffffff83818316178352505050506200057d60201b60201c565b50565b60008151905060006a636f6e736f6c652e6c6f679050602083016000808483855afa5050505050565b828054620005b49062000849565b90600052602060002090601f016020900481019282620005d8576000855562000624565b82601f10620005f357805160ff191683800117855562000624565b8280016001018555821562000624579182015b828111156200062357825182559160200191906001019062000606565b5b50905062000633919062000705565b5090565b8280548282559060005260206000209081019282156200068b579160200282015b828111156200068a57825182908051906020019062000679929190620005a6565b509160200191906001019062000658565b5b5090506200069a919062000724565b5090565b828054828255906000526020600020908101928215620006f2579160200282015b82811115620006f1578251829080519060200190620006e0929190620005a6565b5091602001919060010190620006bf565b5b50905062000701919062000724565b5090565b5b808211156200072057600081600090555060010162000706565b5090565b5b808211156200074857600081816200073e91906200074c565b5060010162000725565b5090565b5080546200075a9062000849565b6000825580601f106200076e57506200078f565b601f0160209004906000526020600020908101906200078e919062000705565b5b50565b60006200079f82620007f7565b620007ab818562000802565b9350620007bd81856020860162000813565b620007c881620008ae565b840191505092915050565b60006020820190508181036000830152620007ef818462000792565b905092915050565b600081519050919050565b600082825260208201905092915050565b60005b838110156200083357808201518184015260208101905062000816565b8381111562000843576000848401525b50505050565b600060028204905060018216806200086257607f821691505b602082108114156200087957620008786200087f565b5b50919050565b7f4e487b7100000000000000000000000000000000000000000000000000000000600052602260045260246000fd5b6000601f19601f8301169050919050565b6137b380620008cf6000396000f3fe608060405234801561001057600080fd5b50600436106101165760003560e01c806370a08231116100a2578063b88d4fde11610071578063b88d4fde14610317578063c87b56dd14610333578063de9d132f14610363578063e985e9c51461036d578063ede383b41461039d57610116565b806370a082311461027d57806395d89b41146102ad578063a22cb465146102cb578063b187301f146102e757610116565b806323b872dd116100e957806323b872dd146101b55780632de38d68146101d157806342842e0e14610201578063514dc8c61461021d5780636352211e1461024d57610116565b806301ffc9a71461011b57806306fdde031461014b578063081812fc14610169578063095ea7b314610199575b600080fd5b61013560048036038101906101309190612483565b6103bb565b604051610142919061306c565b60405180910390f35b61015361049d565b6040516101609190613087565b60405180910390f35b610183600480360381019061017e91906124d5565b61052f565b6040516101909190612fdc565b60405180910390f35b6101b360048036038101906101ae9190612447565b6105b4565b005b6101cf60048036038101906101ca9190612341565b6106cc565b005b6101eb60048036038101906101e691906124d5565b61072c565b6040516101f89190613087565b60405180910390f35b61021b60048036038101906102169190612341565b61084a565b005b610237600480360381019061023291906124d5565b61086a565b6040516102449190613087565b60405180910390f35b610267600480360381019061026291906124d5565b610988565b6040516102749190612fdc565b60405180910390f35b610297600480360381019061029291906122dc565b610a3a565b6040516102a491906132c9565b60405180910390f35b6102b5610af2565b6040516102c29190613087565b60405180910390f35b6102e560048036038101906102e0919061240b565b610b84565b005b61030160048036038101906102fc91906124d5565b610d05565b60405161030e9190613087565b60405180910390f35b610331600480360381019061032c9190612390565b610e23565b005b61034d600480360381019061034891906124d5565b610e85565b60405161035a9190613087565b60405180910390f35b61036b610fd7565b005b61038760048036038101906103829190612305565b6111ea565b604051610394919061306c565b60405180910390f35b6103a561127e565b6040516103b291906132c9565b60405180910390f35b60007f80ac58cd000000000000000000000000000000000000000000000000000000007bffffffffffffffffffffffffffffffffffffffffffffffffffffffff1916827bffffffffffffffffffffffffffffffffffffffffffffffffffffffff1916148061048657507f5b5e139f000000000000000000000000000000000000000000000000000000007bffffffffffffffffffffffffffffffffffffffffffffffffffffffff1916827bffffffffffffffffffffffffffffffffffffffffffffffffffffffff1916145b80610496575061049582611328565b5b9050919050565b6060600080546104ac90613568565b80601f01602080910402602001604051908101604052809291908181526020018280546104d890613568565b80156105255780601f106104fa57610100808354040283529160200191610525565b820191906000526020600020905b81548152906001019060200180831161050857829003601f168201915b5050505050905090565b600061053a82611392565b610579576040517f08c379a000000000000000000000000000000000000000000000000000000000815260040161057090613209565b60405180910390fd5b6004600083815260200190815260200160002060009054906101000a900473ffffffffffffffffffffffffffffffffffffffff169050919050565b60006105bf82610988565b90508073ffffffffffffffffffffffffffffffffffffffff168373ffffffffffffffffffffffffffffffffffffffff161415610630576040517f08c379a000000000000000000000000000000000000000000000000000000000815260040161062790613269565b60405180910390fd5b8073ffffffffffffffffffffffffffffffffffffffff1661064f6113fe565b73ffffffffffffffffffffffffffffffffffffffff16148061067e575061067d816106786113fe565b6111ea565b5b6106bd576040517f08c379a00000000000000000000000000000000000000000000000000000000081526004016106b490613149565b60405180910390fd5b6106c78383611406565b505050565b6106dd6106d76113fe565b826114bf565b61071c576040517f08c379a000000000000000000000000000000000000000000000000000000000815260040161071390613289565b60405180910390fd5b61072783838361159d565b505050565b6060600061076061073c846117f9565b60405160200161074c9190612f98565b6040516020818303038152906040526119a6565b9050600a805490508161077391906135e3565b9050600a81815481106107af577f4e487b7100000000000000000000000000000000000000000000000000000000600052603260045260246000fd5b9060005260206000200180546107c490613568565b80601f01602080910402602001604051908101604052809291908181526020018280546107f090613568565b801561083d5780601f106108125761010080835404028352916020019161083d565b820191906000526020600020905b81548152906001019060200180831161082057829003601f168201915b5050505050915050919050565b61086583838360405180602001604052806000815250610e23565b505050565b6060600061089e61087a846117f9565b60405160200161088a9190612f31565b6040516020818303038152906040526119a6565b9050600c80549050816108b191906135e3565b9050600c81815481106108ed577f4e487b7100000000000000000000000000000000000000000000000000000000600052603260045260246000fd5b90600052602060002001805461090290613568565b80601f016020809104026020016040519081016040528092919081815260200182805461092e90613568565b801561097b5780601f106109505761010080835404028352916020019161097b565b820191906000526020600020905b81548152906001019060200180831161095e57829003601f168201915b5050505050915050919050565b6000806002600084815260200190815260200160002060009054906101000a900473ffffffffffffffffffffffffffffffffffffffff169050600073ffffffffffffffffffffffffffffffffffffffff168173ffffffffffffffffffffffffffffffffffffffff161415610a31576040517f08c379a0000000000000000000000000000000000000000000000000000000008152600401610a2890613189565b60405180910390fd5b80915050919050565b60008073ffffffffffffffffffffffffffffffffffffffff168273ffffffffffffffffffffffffffffffffffffffff161415610aab576040517f08c379a0000000000000000000000000000000000000000000000000000000008152600401610aa290613169565b60405180910390fd5b600360008373ffffffffffffffffffffffffffffffffffffffff1673ffffffffffffffffffffffffffffffffffffffff168152602001908152602001600020549050919050565b606060018054610b0190613568565b80601f0160208091040260200160405190810160405280929190818152602001828054610b2d90613568565b8015610b7a5780601f10610b4f57610100808354040283529160200191610b7a565b820191906000526020600020905b815481529060010190602001808311610b5d57829003601f168201915b5050505050905090565b610b8c6113fe565b73ffffffffffffffffffffffffffffffffffffffff168273ffffffffffffffffffffffffffffffffffffffff161415610bfa576040517f08c379a0000000000000000000000000000000000000000000000000000000008152600401610bf190613109565b60405180910390fd5b8060056000610c076113fe565b73ffffffffffffffffffffffffffffffffffffffff1673ffffffffffffffffffffffffffffffffffffffff16815260200190815260200160002060008473ffffffffffffffffffffffffffffffffffffffff1673ffffffffffffffffffffffffffffffffffffffff16815260200190815260200160002060006101000a81548160ff0219169083151502179055508173ffffffffffffffffffffffffffffffffffffffff16610cb46113fe565b73ffffffffffffffffffffffffffffffffffffffff167f17307eab39ab6107e8899845ad3d59bd9653f200f220920489ca2b5937696c3183604051610cf9919061306c565b60405180910390a35050565b60606000610d39610d15846117f9565b604051602001610d259190612f31565b6040516020818303038152906040526119a6565b9050600b8054905081610d4c91906135e3565b9050600b8181548110610d88577f4e487b7100000000000000000000000000000000000000000000000000000000600052603260045260246000fd5b906000526020600020018054610d9d90613568565b80601f0160208091040260200160405190810160405280929190818152602001828054610dc990613568565b8015610e165780601f10610deb57610100808354040283529160200191610e16565b820191906000526020600020905b815481529060010190602001808311610df957829003601f168201915b5050505050915050919050565b610e34610e2e6113fe565b836114bf565b610e73576040517f08c379a0000000000000000000000000000000000000000000000000000000008152600401610e6a90613289565b60405180910390fd5b610e7f848484846119d9565b50505050565b6060610e9082611392565b610ecf576040517f08c379a0000000000000000000000000000000000000000000000000000000008152600401610ec6906131e9565b60405180910390fd5b6000600660008481526020019081526020016000208054610eef90613568565b80601f0160208091040260200160405190810160405280929190818152602001828054610f1b90613568565b8015610f685780601f10610f3d57610100808354040283529160200191610f68565b820191906000526020600020905b815481529060010190602001808311610f4b57829003601f168201915b505050505090506000610f79611a35565b9050600081511415610f8f578192505050610fd2565b600082511115610fc4578082604051602001610fac929190612ec4565b60405160208183030381529060405292505050610fd2565b610fcd84611a4c565b925050505b919050565b6064610fe36007611af3565b10611023576040517f08c379a000000000000000000000000000000000000000000000000000000000815260040161101a906132a9565b60405180910390fd5b600061102f6007611af3565b9050600061103c8261072c565b9050600061104983610d05565b905060006110568461086a565b90506000838360405160200161106d929190612ec4565b604051602081830303815290604052905060006008836009846040516020016110999493929190612ee8565b604051602081830303815290604052905060006110de836110b984611b01565b6040516020016110ca929190612f53565b604051602081830303815290604052611b01565b90506000816040516020016110f39190612fba565b60405160208183030381529060405290506111426040518060400160405280600a81526020017f0a2d2d2d2d2d2d2d2d2d0000000000000000000000000000000000000000000081525061128f565b61114b8161128f565b6111896040518060400160405280600a81526020017f2d2d2d2d2d2d2d2d2d0a0000000000000000000000000000000000000000000081525061128f565b6111933389611cbf565b61119d8882611cdd565b6111a76007611d51565b7f1c05098ed1ff38e6238d2b1b04b2c7977d4c94ce651bda6473f9dba8dbf01da033896040516111d8929190613043565b60405180910390a15050505050505050565b6000600560008473ffffffffffffffffffffffffffffffffffffffff1673ffffffffffffffffffffffffffffffffffffffff16815260200190815260200160002060008373ffffffffffffffffffffffffffffffffffffffff1673ffffffffffffffffffffffffffffffffffffffff16815260200190815260200160002060009054906101000a900460ff16905092915050565b600061128a6007611af3565b905090565b611325816040516024016112a39190613087565b6040516020818303038152906040527f41304fac000000000000000000000000000000000000000000000000000000007bffffffffffffffffffffffffffffffffffffffffffffffffffffffff19166020820180517bffffffffffffffffffffffffffffffffffffffffffffffffffffffff8381831617835250505050611d67565b50565b60007f01ffc9a7000000000000000000000000000000000000000000000000000000007bffffffffffffffffffffffffffffffffffffffffffffffffffffffff1916827bffffffffffffffffffffffffffffffffffffffffffffffffffffffff1916149050919050565b60008073ffffffffffffffffffffffffffffffffffffffff166002600084815260200190815260200160002060009054906101000a900473ffffffffffffffffffffffffffffffffffffffff1673ffffffffffffffffffffffffffffffffffffffff1614159050919050565b600033905090565b816004600083815260200190815260200160002060006101000a81548173ffffffffffffffffffffffffffffffffffffffff021916908373ffffffffffffffffffffffffffffffffffffffff160217905550808273ffffffffffffffffffffffffffffffffffffffff1661147983610988565b73ffffffffffffffffffffffffffffffffffffffff167f8c5be1e5ebec7d5bd14f71427d1e84f3dd0314c0f7b2291e5b200ac8c7c3b92560405160405180910390a45050565b60006114ca82611392565b611509576040517f08c379a000000000000000000000000000000000000000000000000000000000815260040161150090613129565b60405180910390fd5b600061151483610988565b90508073ffffffffffffffffffffffffffffffffffffffff168473ffffffffffffffffffffffffffffffffffffffff16148061158357508373ffffffffffffffffffffffffffffffffffffffff1661156b8461052f565b73ffffffffffffffffffffffffffffffffffffffff16145b80611594575061159381856111ea565b5b91505092915050565b8273ffffffffffffffffffffffffffffffffffffffff166115bd82610988565b73ffffffffffffffffffffffffffffffffffffffff1614611613576040517f08c379a000000000000000000000000000000000000000000000000000000000815260040161160a90613229565b60405180910390fd5b600073ffffffffffffffffffffffffffffffffffffffff168273ffffffffffffffffffffffffffffffffffffffff161415611683576040517f08c379a000000000000000000000000000000000000000000000000000000000815260040161167a906130e9565b60405180910390fd5b61168e838383611d90565b611699600082611406565b6001600360008573ffffffffffffffffffffffffffffffffffffffff1673ffffffffffffffffffffffffffffffffffffffff16815260200190815260200160002060008282546116e9919061347e565b925050819055506001600360008473ffffffffffffffffffffffffffffffffffffffff1673ffffffffffffffffffffffffffffffffffffffff1681526020019081526020016000206000828254611740919061339d565b92505081905550816002600083815260200190815260200160002060006101000a81548173ffffffffffffffffffffffffffffffffffffffff021916908373ffffffffffffffffffffffffffffffffffffffff160217905550808273ffffffffffffffffffffffffffffffffffffffff168473ffffffffffffffffffffffffffffffffffffffff167fddf252ad1be2c89b69c2b068fc378daa952ba7f163c4a11628f55a4df523b3ef60405160405180910390a4505050565b60606000821415611841576040518060400160405280600181526020017f300000000000000000000000000000000000000000000000000000000000000081525090506119a1565b600082905060005b6000821461187357808061185c9061359a565b915050600a8261186c91906133f3565b9150611849565b60008167ffffffffffffffff8111156118b5577f4e487b7100000000000000000000000000000000000000000000000000000000600052604160045260246000fd5b6040519080825280601f01601f1916602001820160405280156118e75781602001600182028036833780820191505090505b5090505b6000851461199a57600182611900919061347e565b9150600a8561190f91906135e3565b603061191b919061339d565b60f81b818381518110611957577f4e487b7100000000000000000000000000000000000000000000000000000000600052603260045260246000fd5b60200101907effffffffffffffffffffffffffffffffffffffffffffffffffffffffffffff1916908160001a905350600a8561199391906133f3565b94506118eb565b8093505050505b919050565b6000816040516020016119b99190612ead565b6040516020818303038152906040528051906020012060001c9050919050565b6119e484848461159d565b6119f084848484611d95565b611a2f576040517f08c379a0000000000000000000000000000000000000000000000000000000008152600401611a26906130a9565b60405180910390fd5b50505050565b606060405180602001604052806000815250905090565b6060611a5782611392565b611a96576040517f08c379a0000000000000000000000000000000000000000000000000000000008152600401611a8d90613249565b60405180910390fd5b6000611aa0611a35565b90506000815111611ac05760405180602001604052806000815250611aeb565b80611aca846117f9565b604051602001611adb929190612ec4565b6040516020818303038152906040525b915050919050565b600081600001549050919050565b60606000825190506000811415611b2a5760405180602001604052806000815250915050611cba565b60006003600283611b3b919061339d565b611b4591906133f3565b6004611b519190613424565b90506000602082611b62919061339d565b67ffffffffffffffff811115611ba1577f4e487b7100000000000000000000000000000000000000000000000000000000600052604160045260246000fd5b6040519080825280601f01601f191660200182016040528015611bd35781602001600182028036833780820191505090505b509050600060405180606001604052806040815260200161373e604091399050600181016020830160005b86811015611c775760038101905062ffffff818a015116603f8160121c168401518060081b905060ff603f83600c1c1686015116810190508060081b905060ff603f8360061c1686015116810190508060081b905060ff603f831686015116810190508060e01b90508084526004840193505050611bfe565b506003860660018114611c915760028114611ca157611cac565b613d3d60f01b6002830352611cac565b603d60f81b60018303525b508484525050819450505050505b919050565b611cd9828260405180602001604052806000815250611f2c565b5050565b611ce682611392565b611d25576040517f08c379a0000000000000000000000000000000000000000000000000000000008152600401611d1c906131a9565b60405180910390fd5b80600660008481526020019081526020016000209080519060200190611d4c929190612168565b505050565b6001816000016000828254019250508190555050565b60008151905060006a636f6e736f6c652e6c6f679050602083016000808483855afa5050505050565b505050565b6000611db68473ffffffffffffffffffffffffffffffffffffffff16611f87565b15611f1f578373ffffffffffffffffffffffffffffffffffffffff1663150b7a02611ddf6113fe565b8786866040518563ffffffff1660e01b8152600401611e019493929190612ff7565b602060405180830381600087803b158015611e1b57600080fd5b505af1925050508015611e4c57506040513d601f19601f82011682018060405250810190611e4991906124ac565b60015b611ecf573d8060008114611e7c576040519150601f19603f3d011682016040523d82523d6000602084013e611e81565b606091505b50600081511415611ec7576040517f08c379a0000000000000000000000000000000000000000000000000000000008152600401611ebe906130a9565b60405180910390fd5b805181602001fd5b63150b7a0260e01b7bffffffffffffffffffffffffffffffffffffffffffffffffffffffff1916817bffffffffffffffffffffffffffffffffffffffffffffffffffffffff191614915050611f24565b600190505b949350505050565b611f368383611f9a565b611f436000848484611d95565b611f82576040517f08c379a0000000000000000000000000000000000000000000000000000000008152600401611f79906130a9565b60405180910390fd5b505050565b600080823b905060008111915050919050565b600073ffffffffffffffffffffffffffffffffffffffff168273ffffffffffffffffffffffffffffffffffffffff16141561200a576040517f08c379a0000000000000000000000000000000000000000000000000000000008152600401612001906131c9565b60405180910390fd5b61201381611392565b15612053576040517f08c379a000000000000000000000000000000000000000000000000000000000815260040161204a906130c9565b60405180910390fd5b61205f60008383611d90565b6001600360008473ffffffffffffffffffffffffffffffffffffffff1673ffffffffffffffffffffffffffffffffffffffff16815260200190815260200160002060008282546120af919061339d565b92505081905550816002600083815260200190815260200160002060006101000a81548173ffffffffffffffffffffffffffffffffffffffff021916908373ffffffffffffffffffffffffffffffffffffffff160217905550808273ffffffffffffffffffffffffffffffffffffffff16600073ffffffffffffffffffffffffffffffffffffffff167fddf252ad1be2c89b69c2b068fc378daa952ba7f163c4a11628f55a4df523b3ef60405160405180910390a45050565b82805461217490613568565b90600052602060002090601f01602090048101928261219657600085556121dd565b82601f106121af57805160ff19168380011785556121dd565b828001600101855582156121dd579182015b828111156121dc5782518255916020019190600101906121c1565b5b5090506121ea91906121ee565b5090565b5b808211156122075760008160009055506001016121ef565b5090565b600061221e61221984613315565b6132e4565b90508281526020810184848401111561223657600080fd5b612241848285613526565b509392505050565b600081359050612258816136e1565b92915050565b60008135905061226d816136f8565b92915050565b6000813590506122828161370f565b92915050565b6000815190506122978161370f565b92915050565b600082601f8301126122ae57600080fd5b81356122be84826020860161220b565b91505092915050565b6000813590506122d681613726565b92915050565b6000602082840312156122ee57600080fd5b60006122fc84828501612249565b91505092915050565b6000806040838503121561231857600080fd5b600061232685828601612249565b925050602061233785828601612249565b9150509250929050565b60008060006060848603121561235657600080fd5b600061236486828701612249565b935050602061237586828701612249565b9250506040612386868287016122c7565b9150509250925092565b600080600080608085870312156123a657600080fd5b60006123b487828801612249565b94505060206123c587828801612249565b93505060406123d6878288016122c7565b925050606085013567ffffffffffffffff8111156123f357600080fd5b6123ff8782880161229d565b91505092959194509250565b6000806040838503121561241e57600080fd5b600061242c85828601612249565b925050602061243d8582860161225e565b9150509250929050565b6000806040838503121561245a57600080fd5b600061246885828601612249565b9250506020612479858286016122c7565b9150509250929050565b60006020828403121561249557600080fd5b60006124a384828501612273565b91505092915050565b6000602082840312156124be57600080fd5b60006124cc84828501612288565b91505092915050565b6000602082840312156124e757600080fd5b60006124f5848285016122c7565b91505092915050565b612507816134b2565b82525050565b612516816134c4565b82525050565b60006125278261335a565b6125318185613370565b9350612541818560208601613535565b61254a816136d0565b840191505092915050565b600061256082613365565b61256a8185613381565b935061257a818560208601613535565b612583816136d0565b840191505092915050565b600061259982613365565b6125a38185613392565b93506125b3818560208601613535565b80840191505092915050565b600081546125cc81613568565b6125d68186613392565b945060018216600081146125f1576001811461260257612635565b60ff19831686528186019350612635565b61260b85613345565b60005b8381101561262d5781548189015260018201915060208101905061260e565b838801955050505b50505092915050565b600061264b603283613381565b91507f4552433732313a207472616e7366657220746f206e6f6e20455243373231526560008301527f63656976657220696d706c656d656e74657200000000000000000000000000006020830152604082019050919050565b60006126b1601c83613381565b91507f4552433732313a20746f6b656e20616c7265616479206d696e746564000000006000830152602082019050919050565b60006126f1602483613381565b91507f4552433732313a207472616e7366657220746f20746865207a65726f2061646460008301527f72657373000000000000000000000000000000000000000000000000000000006020830152604082019050919050565b6000612757601983613381565b91507f4552433732313a20617070726f766520746f2063616c6c6572000000000000006000830152602082019050919050565b6000612797606383613392565b91507f222c20226465736372697074696f6e223a20224120686967686c79206163636c60008301527f61696d656420636f6c6c656374696f6e206f6620737175617265732e222c202260208301527f696d616765223a2022646174613a696d6167652f7376672b786d6c3b6261736560408301527f36342c00000000000000000000000000000000000000000000000000000000006060830152606382019050919050565b6000612849600b83613392565b91507f5345434f4e445f574f52440000000000000000000000000000000000000000006000830152600b82019050919050565b6000612889602c83613381565b91507f4552433732313a206f70657261746f7220717565727920666f72206e6f6e657860008301527f697374656e7420746f6b656e00000000000000000000000000000000000000006020830152604082019050919050565b60006128ef600d83613392565b91507f3c2f746578743e3c2f7376673e000000000000000000000000000000000000006000830152600d82019050919050565b600061292f603883613381565b91507f4552433732313a20617070726f76652063616c6c6572206973206e6f74206f7760008301527f6e6572206e6f7220617070726f76656420666f7220616c6c00000000000000006020830152604082019050919050565b6000612995602a83613381565b91507f4552433732313a2062616c616e636520717565727920666f7220746865207a6560008301527f726f2061646472657373000000000000000000000000000000000000000000006020830152604082019050919050565b60006129fb602983613381565b91507f4552433732313a206f776e657220717565727920666f72206e6f6e657869737460008301527f656e7420746f6b656e00000000000000000000000000000000000000000000006020830152604082019050919050565b6000612a61602e83613381565b91507f45524337323155524953746f726167653a2055524920736574206f66206e6f6e60008301527f6578697374656e7420746f6b656e0000000000000000000000000000000000006020830152604082019050919050565b6000612ac7600283613392565b91507f227d0000000000000000000000000000000000000000000000000000000000006000830152600282019050919050565b6000612b07602083613381565b91507f4552433732313a206d696e7420746f20746865207a65726f20616464726573736000830152602082019050919050565b6000612b47603183613381565b91507f45524337323155524953746f726167653a2055524920717565727920666f722060008301527f6e6f6e6578697374656e7420746f6b656e0000000000000000000000000000006020830152604082019050919050565b6000612bad602c83613381565b91507f4552433732313a20617070726f76656420717565727920666f72206e6f6e657860008301527f697374656e7420746f6b656e00000000000000000000000000000000000000006020830152604082019050919050565b6000612c13602983613381565b91507f4552433732313a207472616e73666572206f6620746f6b656e2074686174206960008301527f73206e6f74206f776e00000000000000000000000000000000000000000000006020830152604082019050919050565b6000612c79602f83613381565b91507f4552433732314d657461646174613a2055524920717565727920666f72206e6f60008301527f6e6578697374656e7420746f6b656e00000000000000000000000000000000006020830152604082019050919050565b6000612cdf600a83613392565b91507f7b226e616d65223a2022000000000000000000000000000000000000000000006000830152600a82019050919050565b6000612d1f602183613381565b91507f4552433732313a20617070726f76616c20746f2063757272656e74206f776e6560008301527f72000000000000000000000000000000000000000000000000000000000000006020830152604082019050919050565b6000612d85600a83613392565b91507f46495253545f574f5244000000000000000000000000000000000000000000006000830152600a82019050919050565b6000612dc5601d83613392565b91507f646174613a6170706c69636174696f6e2f6a736f6e3b6261736536342c0000006000830152601d82019050919050565b6000612e05603183613381565b91507f4552433732313a207472616e736665722063616c6c6572206973206e6f74206f60008301527f776e6572206e6f7220617070726f7665640000000000000000000000000000006020830152604082019050919050565b6000612e6b601983613381565b91507f616c6c204e4654732068617665206265656e206d696e746564000000000000006000830152602082019050919050565b612ea78161351c565b82525050565b6000612eb9828461258e565b915081905092915050565b6000612ed0828561258e565b9150612edc828461258e565b91508190509392505050565b6000612ef482876125bf565b9150612f00828661258e565b9150612f0c82856125bf565b9150612f18828461258e565b9150612f23826128e2565b915081905095945050505050565b6000612f3c8261283c565b9150612f48828461258e565b915081905092915050565b6000612f5e82612cd2565b9150612f6a828561258e565b9150612f758261278a565b9150612f81828461258e565b9150612f8c82612aba565b91508190509392505050565b6000612fa382612d78565b9150612faf828461258e565b915081905092915050565b6000612fc582612db8565b9150612fd1828461258e565b915081905092915050565b6000602082019050612ff160008301846124fe565b92915050565b600060808201905061300c60008301876124fe565b61301960208301866124fe565b6130266040830185612e9e565b8181036060830152613038818461251c565b905095945050505050565b600060408201905061305860008301856124fe565b6130656020830184612e9e565b9392505050565b6000602082019050613081600083018461250d565b92915050565b600060208201905081810360008301526130a18184612555565b905092915050565b600060208201905081810360008301526130c28161263e565b9050919050565b600060208201905081810360008301526130e2816126a4565b9050919050565b60006020820190508181036000830152613102816126e4565b9050919050565b600060208201905081810360008301526131228161274a565b9050919050565b600060208201905081810360008301526131428161287c565b9050919050565b6000602082019050818103600083015261316281612922565b9050919050565b6000602082019050818103600083015261318281612988565b9050919050565b600060208201905081810360008301526131a2816129ee565b9050919050565b600060208201905081810360008301526131c281612a54565b9050919050565b600060208201905081810360008301526131e281612afa565b9050919050565b6000602082019050818103600083015261320281612b3a565b9050919050565b6000602082019050818103600083015261322281612ba0565b9050919050565b6000602082019050818103600083015261324281612c06565b9050919050565b6000602082019050818103600083015261326281612c6c565b9050919050565b6000602082019050818103600083015261328281612d12565b9050919050565b600060208201905081810360008301526132a281612df8565b9050919050565b600060208201905081810360008301526132c281612e5e565b9050919050565b60006020820190506132de6000830184612e9e565b92915050565b6000604051905081810181811067ffffffffffffffff8211171561330b5761330a6136a1565b5b8060405250919050565b600067ffffffffffffffff8211156133305761332f6136a1565b5b601f19601f8301169050602081019050919050565b60008190508160005260206000209050919050565b600081519050919050565b600081519050919050565b600082825260208201905092915050565b600082825260208201905092915050565b600081905092915050565b60006133a88261351c565b91506133b38361351c565b9250827fffffffffffffffffffffffffffffffffffffffffffffffffffffffffffffffff038211156133e8576133e7613614565b5b828201905092915050565b60006133fe8261351c565b91506134098361351c565b92508261341957613418613643565b5b828204905092915050565b600061342f8261351c565b915061343a8361351c565b9250817fffffffffffffffffffffffffffffffffffffffffffffffffffffffffffffffff048311821515161561347357613472613614565b5b828202905092915050565b60006134898261351c565b91506134948361351c565b9250828210156134a7576134a6613614565b5b828203905092915050565b60006134bd826134fc565b9050919050565b60008115159050919050565b60007fffffffff0000000000000000000000000000000000000000000000000000000082169050919050565b600073ffffffffffffffffffffffffffffffffffffffff82169050919050565b6000819050919050565b82818337600083830152505050565b60005b83811015613553578082015181840152602081019050613538565b83811115613562576000848401525b50505050565b6000600282049050600182168061358057607f821691505b6020821081141561359457613593613672565b5b50919050565b60006135a58261351c565b91507fffffffffffffffffffffffffffffffffffffffffffffffffffffffffffffffff8214156135d8576135d7613614565b5b600182019050919050565b60006135ee8261351c565b91506135f98361351c565b92508261360957613608613643565b5b828206905092915050565b7f4e487b7100000000000000000000000000000000000000000000000000000000600052601160045260246000fd5b7f4e487b7100000000000000000000000000000000000000000000000000000000600052601260045260246000fd5b7f4e487b7100000000000000000000000000000000000000000000000000000000600052602260045260246000fd5b7f4e487b7100000000000000000000000000000000000000000000000000000000600052604160045260246000fd5b6000601f19601f8301169050919050565b6136ea816134b2565b81146136f557600080fd5b50565b613701816134c4565b811461370c57600080fd5b50565b613718816134d0565b811461372357600080fd5b50565b61372f8161351c565b811461373a57600080fd5b5056fe4142434445464748494a4b4c4d4e4f505152535455565758595a6162636465666768696a6b6c6d6e6f707172737475767778797a303132333435363738392b2fa26469706673582212206b3df06a1913ad2249fd2e96cf160dc06639dd2b1999e8f227a5119894979f5564736f6c6343000800003348656c6c6f2c20776f726c64212074686973206973206d79206669727374206e66743c73766720786d6c6e733d27687474703a2f2f7777772e77332e6f72672f323030302f73766727207072657365727665417370656374526174696f3d27784d696e594d696e206d656574272076696577426f783d273020302033353020333530273e3c7374796c653e2e62617365207b2066696c6c3a2077686974653b20666f6e742d66616d696c793a2073657269663b20666f6e742d73697a653a20323470783b207d3c2f7374796c653e3c726563742077696474683d273130302527206865696768743d2731303025272066696c6c3d27272f3e3c7465787420783d273530252720793d273530252720636c6173733d27626173652720646f6d696e616e742d626173656c696e653d276d6964646c652720746578742d616e63686f723d276d6964646c65273e",
  "linkReferences": {},
  "deployedLinkReferences": {}
}